:100000000213D302002A7F04021EE40200317F069D
:10001000021EE4020032D2A3D20122021A35C2A388
:10002000C20122020039121E802232021D58D2ADB6
:1000300022323202003AD281223232020041C2819F
:1000400022323202004202178F323202004932322B
:1000500032323202004A900020E024FF9203E4F0A2
:0E006000A2032202004E323232323202004F30
:0300730002005038
:03007B000200512F
:1000830002005290F023E4F043A208C2A3C201226B
:0300930002006602
:03009B00020067F9
:0300A300020068F0
:0300AB00020069E7
:1000B30002006A90009C12159790009BEFF0640178
:1000C3006003020161ED30E00CA312156312156B9E
:1000D30044801208E5ED30E50B12156012156B44F0
:1000E300401208E5ED30E60B12156012156B442043
:1000F3001208E5ED30E40B12156012156B44101273
:1001030008E5ED30E70B12156012156B4408120871
:10011300E5EC30E00B12156012156B44041208E590
:10012300EC30E10B12156012156B44021208E5ED79
:1001330030E30B12156012156B44011208E5ED3024
:10014300E10D121560240512156D44801208E5EDCA
:1001530020E203020775121560240502067390005E
:100163009BE064026003020215ED30E50EA3121555
:1001730063240512156D44401208E5ED30E40D12B9
:100183001560240512156D44201208E5ED30E00DCD
:10019300121560240512156D44081208E5ED30E6CA
:1001A3000D121560240512156D44041208E5EC3098
:1001B300E10D121560240512156D44021208E5EDD8
:1001C30030E30D121560240512156D44011208E584
:1001D300ED30E10D121560240612156D44801208EE
:1001E300E5ED30E70D121560240612156D4440123B
:1001F30008E5EC30E00D121560240612156D44205D
:100203001208E5ED20E203020775121560240602C9
:10021300067390009BE0640360030202C9ED30E0C3
:100223000EA3121563240612156D44081208E5ED9A
:1002330030E50D121560240612156D44041208E50D
:10024300ED30E60D121560240612156D44021208F6
:10025300E5ED30E40D121560240612156D4401120C
:1002630008E5ED30E70D121560240912156D448081
:100273001208E5EC30E00D121560240912156D44E7
:10028300401208E5EC30E10D121560240912156DDA
:1002930044201208E5ED30E30D1215602409121510
:1002A3006D44101208E5ED30E10D121560240812BB
:1002B300156D44081208E5ED20E2030207751215D7
:1002C3006024080204ED90009BE0640460030203D1
:1002D3007DED30E00EA3121563240812156D4480E2
:1002E3001208E5ED30E60D121560240812156D4471
:1002F300401208E5EC30E10D121560240812156D6B
:1003030044201208E5ED30E30D12156024081215A0
:100313006D44101208E5ED30E50D12156024081246
:10032300156D44041208E5ED30E40D121560240840
:1003330012156D44021208E5ED30E10D121560242B
:100343000712156D44081208E5ED30E70D1215602C
:10035300240712156D44041208E5EC30E00D121564
:1003630060240712156D44021208E5ED20E2030232
:10037300077512156024070204ED90009BE06405E5
:100383007076ED30E00EA3121563240A12156D4446
:10039300801208E5ED30E10D121560240A12156D87
:1003A30044401208E5ED30E20D121560240A1215DF
:1003B3006D44201208E5ED30E30D121560240A1296
:1003C300156D44101208E5ED30E50D121560240A91
:1003D30012156D44041208E5ED30E60D1215602484
:1003E3000A12156D44021208E5ED20E403020775B5
:1003F300121560240A0204ED90009BE06406706FFE
:10040300ED30E50DA3121563F912086C4440120890
:10041300E5ED30E60C121560F912086C4420120861
:10042300E5ED30E40C121560F912086C4410120863
:10043300E5ED30E00C121560F912086C440812085F
:10044300E5ED30E10C121560F912086C4404120852
:10045300E5ED30E20C121560F912086C4402120843
:10046300E5ED20E303020775121560F902057690A6
:10047300009BE06407707AED30E30EA3121563244A
:100483000112156D44801208E5ED30E20D1215607E
:10049300240112156D44401208E5ED30E10D1215EB
:1004A30060240112156D44201208E5ED30E00D12B1
:1004B3001560240112156D44101208E5ED30E40DAA
:1004C300121560240112156D44041208E5ED30E69F
:1004D3000D121560240112156D44021208E5ED207A
:1004E300E5030207751215602401F9E43AFA0205DF
:1004F3007690009BE06408600302057EED30E30E16
:10050300A3121563240212156D44801208E5ED3021
:10051300E20D121560240212156D44401208E5ED38
:1005230030E10D121560240212156D44201208E506
:10053300ED30E00D121560240212156D44101208FF
:10054300E5ED30E40D121560240212156D4404121A
:1005530008E5ED30E60D121560240212156D440214
:100563001208E5ED20E5030207751215602402F970
:10057300E43AFA12086C440102077290009BE064AB
:1005830009600302067BED30E50EA3121563240D0B
:1005930012156D44081208E5ED30E60D12156024BE
:1005A3000D12156D44041208E5EC30E50D121560CB
:1005B300240D12156D44021208E5ED30E40D1215F9
:1005C30060240D12156D44011208E5ED30E00D12A3
:1005D3001560240E12156D44801208E5EC30E20D0F
:1005E300121560240E12156D44401208E5ED30E734
:1005F3000D121560240E12156D44201208E5EC301F
:10060300E10D121560240E12156D44101208E5ED6C
:1006130030E10D121560240E12156D44081208E521
:10062300EC30E30D121560240E12156D440412080C
:10063300E5EC30E00D121560240E12156D44021224
:1006430008E5EC30E40D121560240E12156D44011B
:100653001208E5ED30E20D121560240F12156D44FA
:10066300201208E5ED20E303020775121560240F3D
:1006730012156D441002077290009BE0640A600338
:10068300020775ED30E50EA3121563240B12156DE9
:1006930044081208E5ED30E60D121560240B12151F
:1006A3006D44041208E5EC30E50D121560240B12BD
:1006B300156D44021208E5ED30E40D121560240BAC
:1006C30012156D44011208E5EC30E40D1215602497
:1006D3000C12156D44801208E5EC30E20D12156022
:1006E300240C12156D44401208E5EC30E30D12158D
:1006F30060240C12156D44201208E5EC30E10D1254
:100703001560240C12156D44101208E5ED30E00D50
:10071300121560240C12156D44081208E5ED30E73C
:100723000D121560240C12156D44041208E5EC300B
:10073300E00D121560240C12156D44021208E5ED4C
:1007430030E10D121560240D12156D44401208E5B9
:10075300ED30E20D121560240D12156D44201208C0
:10076300E5ED30E30D121560240D12156D441012E2
:1007730008E522E709F608DFFA8046E709F208DF11
:10078300FA803E88828C83E709F0A3DFFA8032E3A4
:1007930009F608DFFA8078E309F208DFFA80708847
:1007A300828C83E309F0A3DFFA806489828A83E081
:1007B300A3F608DFFA805889828A83E0A3F208DF70
:1007C300FA804C80D280FA80C680D4806980F2801F
:1007D30033801080A680EA809A80A880DA80E28045
:1007E300CA803389828A83ECFAE493A3C8C582C89A
:1007F300CCC583CCF0A3C8C582C8CCC583CCDFE904
:10080300DEE7800D89828A83E493A3F608DFF9EC9F
:10081300FAA9F0EDFB2289828A83ECFAE0A3C8C52A
:1008230082C8CCC583CCF0A3C8C582C8CCC583CC51
:10083300DFEADEE880DB89828A83E493A3F208DFC0
:10084300F980CC88F0EF60010E4E60C388F0ED2490
:1008530002B4040050B9F582EB2402B4040050AF93
:1008630023234582239007C673BB010689828A83AB
:10087300E0225002E722BBFE02E32289828A83E45C
:100883009322BB010CE58229F582E5833AF583E0E7
:10089300225006E92582F8E622BBFE06E92582F806
:1008A300E222E58229F582E5833AF583E49322BBCC
:1008B300010FF8E58229F582E5833AF583E028F014
:1008C300225009C58229F8E58226F622BBFE09C516
:1008D3008229F8E22582F222F8EA2583F583E99357
:1008E3002822BB010689828A83F0225002F722BBA9
:1008F300FE01F322F8BB010DE58229F582E5833A77
:10090300F583E8F0225006E92582C8F622BBFE05EE
:10091300E92582C8F222BC000BBE0029EF8DF084CA
:10092300FFADF022E4CCF875F008EF2FFFEE33FEB5
:10093300EC33FCEE9DEC984005FCEE9DFE0FD5F0EC
:10094300E9E4CEFD22EDF8F5F0EE8420D21CFEADF5
:10095300F075F008EF2FFFED33FD4007985006D5F3
:10096300F0F222C398FD0FD5F0EA22C5F0F8A3E018
:1009730028F0C5F0F8E582158270021583E038F09F
:1009830022BB0110E58229F582E5833AF583E0F580
:10099300F0A3E0225009E92582F886F008E622BB9D
:1009A300FE0AE92582F8E2F5F008E222E5832AF55A
:1009B30083E993F5F0A3E99322BB010DC58229C511
:1009C30082C5833AC58302096E5011C58229F8088E
:1009D300E5F026F618F5F0E58236F622BBFE11C5E2
:1009E3008229F808E225F0F5F0F218E23582F222C6
:1009F300F8E58229F582E5832AF58374019325F0CE
:100A0300F5F0E4933822F8BB0111E58229F582E57C
:100A1300833AF583E8F0E5F0A3F0225009E9258253
:100A2300C8F608A6F022BBFE09E92582C8F2E5F064
:100A330008F22275F008758200EF2FFFEE33FECD2A
:100A430033CDCC33CCC58233C5829BED9AEC99E58B
:100A53008298400CF582EE9BFEED9AFDEC99FC0F1B
:100A6300D5F0D6E4CEFBE4CDFAE4CCF9A88222B8E3
:100A730000C1B90059BA002DEC8BF084CFCECDFC68
:100A8300E5F0CBF97818EF2FFFEE33FEED33FDECF5
:100A930033FCEB33FB10D703994004EB99FB0FD8DE
:100AA300E5E4F9FA227818EF2FFFEE33FEED33FD7C
:100AB300EC33FCC933C910D7059BE99A4007EC9B7B
:100AC300FCE99AF90FD8E0E4C9FAE4CCFB2275F00B
:100AD30010EF2FFFEE33FEED33FDCC33CCC833C81C
:100AE30010D7079BEC9AE899400AED9BFDEC9AFC22
:100AF300E899F80FD5F0DAE4CDFBE4CCFAE4C8F9D1
:100B030022CFF4CFCEF4CECDF4CDCCF4CC22E493EB
:100B1300FC740193FD740293FE740393FF22E49328
:100B2300F8740193F9740293FA740393FB22ECF0C3
:100B3300A3EDF0A3EEF0A3EFF022A8828583F0D01B
:100B430083D082120B54120B54120B54120B54E425
:100B530073E493A3C583C5F0C583C8C582C8F0A356
:100B6300C583C5F0C583C8C582C822D083D082F8A7
:100B7300E4937012740193700DA3A393F87401931B
:100B8300F5828883E4737402936860EFA3A3A38060
:100B9300DFEC8EF0A4CCC5F0CCCDF8EFA4CEC5F03D
:100BA3002DFDE43CFCE8A42EC8C5F03DFDE43CFC6F
:100BB300EFA4FFE5F028FEE43DFDE43CFC229000B9
:100BC3009B1215971215815404FEE4FCEE600C9001
:100BD300009B121563F97480120E111215815408CB
:100BE300FEE4FCEE600C90009B121563F974401256
:100BF3000E111215815410FEE4FCEE600C90009B64
:100C0300121563F97420120E3912158C5440FDE449
:100C1300FCED600C90009B121563F97410120E39F1
:100C23001215815402FEE4FCEE600C90009B121539
:100C330063F97480120DF31215815480FEE4FCEE07
:100C4300600C90009B121563F97440120DF312159A
:100C53008C5420FDE4FCED600C90009B121563F9AD
:100C63007420120E0712158C5410FDE4FCED600C79
:100C730090009B121563F97410120E071215A054FD
:100C830001FFE4FEFCEF600C90009B121563F97406
:100C930008120E2F1215A05402FFE4FEFCEF600CA5
:100CA30090009B121563F97404120E2F1215A054B1
:100CB30004FFE4FEFCEF601290009B121563F990B1
:100CC30000A27402F07D07120FE71215A05440FF33
:100CD300E4FEFCEF600C90009B121563F974801224
:100CE3000E1B1215A05420FFE4FEFCEF600C9000D5
:100CF3009B121563F97440120E1B1215A05410FFBA
:100D0300E4FEFCEF600C90009B121563F974201253
:100D13000E431215A05408FFE4FEFCEF600C900094
:100D23009B121563F97410120E431215A05480FF21
:100D3300E4FEFCEF601290009B121563F99000A291
:100D43007480F07D0B120FE71215815420FEE4FC32
:100D5300EE601290009B121563F99000A27480F06C
:100D63007D0D120FE71215815401FEE4FCEE600CB9
:100D730090009B121563F97480120DFD12158154B6
:100D830040FEE4FCEE600C90009B121563F9744086
:100D9300120DFD12158C5408FDE4FCED600C90005F
:100DA3009B121563F97408120E2512158C5404FD59
:100DB300E4FCED600C90009B121563F97404120EB1
:100DC3002512158C5402FDE4FCED600C90009B127F
:100DD3001563F97402120E4D12158C5401FDE4FCD7
:100DE300ED600C90009B121563F97401120E4D22F5
:100DF3009000A2F07D07120FE7229000A2F07D1170
:100E0300120FE7229000A2F07D07120FE722900055
:100E1300A2F07D1B120FE7229000A2F07D09120FB2
:100E2300E7229000A2F07D11120FE7229000A2F0BA
:100E33007D07120FE7229000A2F07D1B120FE7221D
:100E43009000A2F07D09120FE7229000A2F07D111D
:100E5300120FE72290F032E4F043A30490F036F04F
:100E630043A34090F005F0439A2090F003F0439A97
:100E73000812223A7F10121FCD7F01122371122311
:100E830034120036120086121F831217FA1223B28D
:100E93001221A21223CB12214D1220D6E4FFFE12FF
:100EA3002275122098121BC25008E49000C2F0125F
:100EB3001F0D1221D7120026AC06AD079000BDE02E
:100EC300FEA3E0FF9000D0E06402C37001D392035D
:100ED3001219DC12238C402E9000BFE0FEA3E0FF2A
:100EE3009000BDE06E7003A3E06F601A9000BDE058
:100EF300FFA3E09000BFCFF0A3EFF09000BFE0FEB0
:100F0300A3E0FF122275121C56787C7C007D017EC3
:100F1300007F0412084690007DE0FF608590007C0E
:100F2300E0701AEF6401700B7F32FE1223831222EA
:100F3300AB80D390007DE0640370CB806390007C32
:100F4300E06403600512238C502378807C007D01CC
:100F53007B017A00797C7E007F041208461212FC22
:100F630012238C40A190007CE0640360999000D030
:100F7300E06401609190007CE024FE602D047086A3
:100F830090007DE024FD601824026003020F091223
:100F93000FDBD3940074809480402DE014F08028FC
:100FA3007FE87E03122383020F0990007DE024FD76
:100FB300601C24026003020F09120FDBC394027446
:100FC3008094805003E004F0121F0D020F097FE8A4
:100FD3007E03122383020F097F327E001223839044
:100FE30000C2E02290009E121597ED120B6E1025A1
:100FF30001102F03103E05104D07105C09106B0BF9
:10100300107A0D10880F10961110A41310B215103A
:10101300C01710CE1910DC1B10EA1D10F81F0000BA
:10102300111090009E121563F902110490009E1294
:1010330015632401F9E43AFA02110490009E121593
:10104300632402F9E43AFA02110490009E12156334
:101053002403F9E43AFA02110490009E1215632462
:101063000BF9E43AFA02110490009E121563240C62
:10107300F9E43AFA02110490009E121563240DF963
:10108300E43AFA807C90009E121563240EF9E43A48
:10109300FA806E90009E121563240FF9E43AFA80E9
:1010A3006090009E1215632404F9E43AFA8052908A
:1010B300009E1215632405F9E43AFA804490009ED9
:1010C3001215632406F9E43AFA803690009E12154D
:1010D30063240AF9E43AFA802890009E12156324E7
:1010E30007F9E43AFA801A90009E1215632408F96E
:1010F300E43AFA800C90009E1215632409F9E43A4D
:10110300FA12086CFF9000A2E04F1208E52290004B
:10111300941215979000ADE0FAA3E0FB7C037DE801
:10112300FFAE02120919900097EFF07C007D64AFC7
:1011330003AE021209197C007D0A120919A3EDF00E
:101143009000ADA3E0FF1215BA7C007D0A120919C5
:10115300900099EDF0AF031215BAA3EDF09000944F
:10116300121563F912172390009712157412156361
:10117300F97F011200B6900098121574121563F9E5
:101183007F021200B6900099121574121563F97F4D
:10119300031200B690009A121574121563F97F04B6
:1011A3001200B69000A7121574121563F97F051289
:1011B30000B69000A8121574121563F97F06120089
:1011C300B69000A9121574121563F97F071200B6C1
:1011D3009000AA121574121563F97F081200B690D5
:1011E30000AB121574121563F97F091200B6900053
:1011F300AC121574121563F97F0A1200B6900094AD
:10120300121563F9020BC1900081EBF0A3EAF0A37E
:10121300E9F012086CFF121E021218671218AEFED4
:101223006F600E900003EF1208F7900001740180C5
:101233005E900001120885C3940374809480500863
:1012430090000174010208B2900002120885FC6E3E
:1012530060401218671218AE601E12086CFFE4FBA0
:10126300FA7D011218649000041218B7900006E486
:101273001208F71218B4800EEC600B1218671218DC
:101283007D7D02121A8B1218671218AE90000202AB
:1012930008F71218671218AE605E900004E475F048
:1012A3000A1209BC90000612088570221218679072
:1012B3000004120984C394DCE5F09405401012186D
:1012C3007D7D0312186490000674011208F712184A
:1012D30067900007E475F00A1209BC900007120931
:1012E30084C394C8E5F09400400E1218671218B432
:1012F30012187D7D04121A8B22900080E064037023
:1013030030A3E06403702A9000B4E0700404F0801A
:101313000DE49000B4F09000AFA3E0121E6C7FE8E0
:101323007E031223839000B4E060030213CF0222F2
:101333000B9000B4E0FF70030213D2900080E064CE
:1013430003701FA3E064017019EF64019000B4708F
:10135300057402F080037401F07F327E0012238350
:10136300806A900081E0FF64016005EF6404705FB0
:10137300900080E064017023121E89700E121E63B8
:10138300E4FDFC1223039000AF8009121E80122299
:10139300249000B1EEF0A3EFF0802A900080E06487
:1013A30002702C121E89700F121E637D637C001263
:1013B30022F69000AF8009121E801220F59000B132
:1013C300EEF0A3EFF07F147E00122383121E33226C
:1013D30078FFE4F6D8FD9000007F007E04E4F0A3DC
:1013E300DFFCDEFA758120021428020E57E493A372
:1013F300F8E493A34003F68001F208DFF48029E4C4
:1014030093A3F85407240CC8C333C4540F4420C80F
:10141300834004F456800146F6DFE4800B010204A6
:1014230008102040809014E8E47E019360BCA3FF81
:10143300543F30E509541FFEE493A360010ECF54DB
:10144300C025E060A840B8E493A3FAE493A3F8E4CA
:1014530093A3C8C582C8CAC583CAF0A3C8C582C836
:10146300CAC583CADFE9DEE780BEEF701DAEC8EEF2
:1014730054BFFEED5401C4333354C04EF5C8AECE51
:10148300EE54FCFEED44014EF5CEEF6401701953AA
:10149300C8DFED700343C820AECEEE54F3FEED4437
:1014A3000125E025E04EF5CEEF6402701853C8DF46
:1014B300ED700343C820AECEEE54CFFEED4401C41D
:1014C30054F04EF5CEEF6403701A53C8DFED70038A
:1014D30043C820AECEEE543FFEED4401C433335433
:1014E300C04EF5CE224100C2004200BF00004100C1
:1014F300C1004200C300004200C500004200AD002D
:10150300004600A70000000000004400A300000004
:10151300004A0068000000000000000000004A00CC
:1015230072BF06DB5F766DED07EF6F4A0049FA0A7B
:10153300D69E2EBDFC1AFEBE4A0053AFA0CBE9E4F3
:101543006D6FA8EFED4B005D102001408001040298
:1015530031CEFF4100D0024200BD00000090009C4C
:10156300E0FBA3E0FAA3E0222404F9E43AFA020838
:101573006CE0FF1221BDAC06AD07900094229000F1
:10158300A3A3A3E0FEE4FFEE229000A3A3E0FDE407
:10159300FFFEED22EBF0A3EAF0A3E9F0229000A313
:1015A300A3A3A3E022EF75F00A84E5F0F022EF7520
:1015B300F00A84E5F0F0227C007D0AAE02020919EC
:1015C300E0F8A3E0F9A3E0FAA3E0FB22FC9000A378
:1015D300020B319000971215979000041208857F33
:1015E30013121637121563F99000051208857F153B
:1015F300121637121563F99000061208857F171229
:10160300163F121563F99000091208857F1F121601
:101613003F121563F9900008120885FD7F1D121D06
:1016230093900097121563F9900007120885FD7FC8
:101633001B021D93FD121D9390009722FD121D9313
:1016430090009722EF14601F14602B14603714600E
:101653004314604F24057059EC90F131F090F13050
:10166300121F3E4401F022EC90F133F090F132125C
:101673001F3E4402F022EC90F135F090F134121F3A
:101683003E4404F022EC90F137F090F136121F3E05
:101693004408F022EC90F139F090F138121F3E44E7
:1016A30010F022EC90F13BF090F13A121F3E4420EF
:1016B300F022EF14601F14602B146037146043147E
:1016C300604F24057059EC90F141F090F140121FE6
:1016D3003E4401F022EC90F143F090F142121F3EA0
:1016E3004402F022EC90F145F090F144121F3E4485
:1016F30004F022EC90F147F090F146121F3E4408AB
:10170300F022EC90F149F090F148121F3E4410F0A2
:1017130022EC90F14BF090F14A121F3E4420F0224C
:10172300E41208E59000011208F7900002E41208A1
:10173300F7900003E41208F7900004E41208F7900E
:101743000005E41208F7900006E41208F79000077A
:10175300E41208F7900008E41208F7900009E41275
:1017630008F790000AE41208F790000BE41208F758
:1017730090000CE41208F790000DE41208F79000B3
:101783000EE41208F790000FE40208F7900080EED1
:10179300F0A3EFF04E7004FDFC8056C3900081E08F
:1017A3009410900080E094005006E4F0A37410F0CD
:1017B300900080E0FEA3E0FBAA06E4F9F87F407EF8
:1017C300427D0FFC120A72900082EEF0A3EFF04EFE
:1017D3007007900082F0A304F0900082E0FCA3E085
:1017E300FD7F05121647900082E0C313FCA3E013AC
:1017F300FD7F051216B522E4FEEE1218985054EE42
:101803001218A0EEF01218A0E0FF121ADEEE75F027
:1018130009A42424F582E434001218732425F582E4
:10182300E434001218732426F582E434001218738A
:101833001218BDE4F0A31218762429F582E43400CB
:10184300121873242AF582E43400F583E4F0A3F03C
:101853000E80A6E4900048F0900022F0900021F062
:1018630022121A8B900081E0FBA3E0FAA3E0F92295
:10187300F583E4F0EE75F009A42212086CFF9000E2
:1018830004120984FBAAF022E004F0E0C394087474
:1018930080948022EFC39404748094802275F009AD
:1018A300A42423F582E43400F58322900003020884
:1018B30085900007E4F5F0020A092427F582E43451
:1018C30000F5832290009712159790000B1208855C
:1018D3007F0912191D121563F990000C1208857FF8
:1018E3000B12191D121563F990000D120885FD7F67
:1018F3000D121D93900097121563F990000E1208B4
:1019030085FD7F0F121D93900097121563F99000C8
:101913000F120885FD7F11021D93FD121D93900088
:101923009722EF14601C14602514602E1460371482
:1019330060402405704790F1237401F090F12AED83
:10194300F02290F1237401F090F12BEDF02290F14D
:10195300247401F090F12CEDF02290F1247401F045
:1019630090F12DEDF02290F1257401F090F12EED20
:10197300F02290F1257401F090F12FEDF022900008
:101983009712159790000A1208857F191219D4121D
:101993001563F912086C7F011219D4121563F990BB
:1019A3000001120885FD7F03121D93900097121505
:1019B30063F9900002120885FD7F05121D939000C4
:1019C30097121563F9900003120885FD7F07021D26
:1019D30093FD121D939000972230030BED4C60078B
:1019E300D3EF9DEE9C500630024702234A200207A4
:1019F300D20212224F80349000CEE0FEA3E0FF908B
:101A030000CBE0FCA3E0FDC3EF9DFDEE9CFCC3ED2A
:101A13009464EC9400401A9000CBEEF0A3EFF0A393
:101A2300E07F0160027F009000CDEFF07F01122084
:101A3300B722C0E0C0F0C083C082C0D075D000C060
:101A430000C001C002C003C004C005C006C0077FB8
:101A530001122130758DF8758B30D2009000CFE0E4
:101A630004F070069000CEE004F0121C0CD007D0F6
:101A730006D005D004D003D002D001D000D0D0D0FE
:101A830082D083D0F0D0E03290002112188E504AD9
:101A9300A3E0FE25E025E02400F582E43400F5838D
:101AA300EFF0EE25E025E02401F582E43400F58330
:101AB300EDF0AF03900022E025E025E02402F5825B
:101AC300E43400F583EAF0A3EFF090002212188BC0
:101AD3004002E4F0900021E004F022EF14601A14B5
:101AE30060271460342403703F90F004E4F0539AA9
:101AF300EF90F00AE04410F02290F031E4F053A3A9
:101B0300FD90F03AE04402F02290F017E4F053A184
:101B13007F90F01AE04480F02290F013E4F053A198
:101B2300F790F01AE04408F022EF14601924FE60E5
:101B33002B1460312404703CAE89EE54F8FEED257D
:101B4300E025E04B8012AE89EE548FFEEBC454F0D7
:101B5300FFEDC4333354C04F4EF58922AED2EE5459
:101B6300FC4BF5D222AED2EE54CFFEAF03EFC454FA
:101B7300F04EF5D222EF14601924FE602314602D79
:101B83002404703AAE8EEE54F7FEED33333354F83B
:101B9300800AAE8EEE54EFFEEDC454F04EF58E2265
:101BA300AED2EE54FBFEED25E025E0800EAED2EE84
:101BB30054BFFEAF05EFC4333354C04EF5D2229069
:101BC30000B4E070069000B3E07002C3229000CE30
:101BD300E0FEA3E0FF9000B5E0FCA3E0FDC3EF9DB2
:101BE300FDEE9CFCC3ED94E8EC94035002C32290F9
:101BF30000B5EEF0A3EFF09000B3E014F012220B67
:101C03009000B3E0C37001D3229000B7E475F001F4
:101C130012096EFEC3E5F094F4EE94014034E490AF
:101C230000B7F0A3F09000BBE0FFA3E09000B9CFB2
:101C3300F0A3EFF0E49000BBF0A3F09000B9E0FE56
:101C4300A3E0FF7C007D3C120B949000BDEEF0A35B
:101C5300EFF022E4900080F0A3F0A3F0A3F0900053
:101C630021E0602F900048E075F004A42400F9748B
:101C73000035F0FA7B0178807C007D017E007F04D3
:101C830012084690004812188B4002E4F09000219D
:101C9300E014F07B017A007980227F002082027FAA
:101CA300019000C9E0FE6F6009EFF09000C7740176
:101CB300F0229000C7E0C39403748094805004E042
:101CC30004F0229000C8E06E6010A3E09000C8F01A
:101CD3007F01600302231C1223282290F022E4F0E8
:101CE30053A2FB90F02AE04404F090F0C87422F071
:101CF300E4FD7F01122310E4FF12235FE4FFFE12D1
:101D03002058E4F5C9FDFF12146DE4FF1222CC1232
:101D1300002E1223551221F12290F0267417F0435E
:101D2300A2407F041223B97D027F051219257D107D
:101D33007C277F05121647E4FDFC7F051216B57F4D
:101D43002012239D90F129E04420F07F201223A448
:101D53007F200223ABC0E0C0F0C083C082C0D07537
:101D6300D000C000C001C002C003C004C005C0064B
:101D7300C007122186D007D006D005D004D003D0E7
:101D830002D001D000D0D0D082D083D0F0D0E032C6
:101D9300AB07AA05E4FFEB25E025E0FBC285122390
:101DA3007A50030F80F87D037FA0121E90AF037D4E
:101DB30006121E90AF027D08121E90E4FF12237AD2
:101DC30050030F80F8D285229000C1E025E025E082
:101DD30024DDF582E43423F583120B119000C2E075
:101DE30025E025E024D1F582E43423F583120B2189
:101DF300EB4FFFEA4EFEE94DFDE84CFC0223BFEF3B
:101E030014601214601714601C240370207F0020D8
:101E130084027F01227F0020B1027F01227F002004
:101E230097027F01227F002093027F01227F0022FD
:101E3300121E89701C121E637C007D0A120919AFE1
:101E4300051222DA121E637C007D0A12091902228E
:101E5300E89000B4E064027006121E80122275221C
:101E63009000AFE0FEA3E0FF229000B3F09000CE1D
:101E7300E0FFA3E09000B5CFF0A3EFF0229000B114
:101E8300E0FEA3E0FF229000B4E0640122AE07E489
:101E9300FCECC39D501EC2B61223C5EE30E704D23C
:101EA300B28002C2B21223C5D2B61223C5EE25E018
:101EB300FE0C80DD0223C5E4900080F0900080E0FA
:101EC300FF121898501AEF75F009A42423F974002F
:101ED30035F0FA7B0112120A900080E004F080DCF6
:101EE30022AB07E4FFC28512237A50030F80F87DEB
:101EF300047F80121E90AF037D08121E90E4FF1230
:101F0300237A50030F80F8D285229000C2E0700339
:101F1300FF800A9000C2E0640170057F28FE800400
:101F23007F507E001200469000C2E0FF1223680239
:101F33001DCBE0FEEFF4FFEE5FF022EDF090F12910
:101F4300E022EBF090F129E0227E007401A807085B
:101F530022FFE0FDEF5D7F0022EF14601024FE609E
:101F630011146013240470178D8C8B8A228D8D8B32
:101F73008B228DDB8BDA22AF058FE3AF038FE22257
:101F83007B01E4FD7F01121B2CE4FD7F01121B7812
:101F93007B307DF87F01121F5C7F011221137F01CB
:101FA300122079D2AF2290009412159790009412C8
:101FB3001563F91215D6900094121563F91219815D
:101FC300900094121563F90218C7900080EFF0E4B3
:101FD300A3F0F9900080E0FFE9C39F500FA3E0FF57
:101FE300E4FD121D93E02402F00980E722900080B3
:101FF300EFF0E4A3F0F9900080E0FFE9C39F500FF6
:10200300A3E0FF7DFF121D93E02402F00980E72285
:102013001200067F10121FCDE4FF12237112003E3F
:1020230012001E12239512233F12234A9000D074EC
:1020330001F02212000E7F10121FF07F0112237194
:1020430012003612239512233F12234A9000D074B4
:1020530002F0022263AD07AC06AB058BCCECFFF5B7
:10206300CDE5C8541864106008E5C85418641870A6
:10207300048BCA8FCB22EF14600F24FE600F146011
:10208300102404700F438810224388402243D2084F
:102093002243D2802230001BC200900047E004F0AC
:1020A300C3940A74809480400AE4F090002004F002
:1020B300121EBA22EF7007C295C2A4C2A522D295FE
:1020C3009000CDE0FFD36001C392A4EFC36001D3BE
:1020D30092A52290F015E4F043A12090F024F04360
:1020E300A210A3F043A220C202122250F0E4FF0286
:1020F30020B7AD07AC06ED2464FBE43CFAD3EB94C4
:102103000FEA942740057E277F0F22AF03AE0222FA
:10211300EF14600E24FE600D14600E2404700DD2C3
:10212300A922D2AB2243AA012243AA0222EF1460BE
:102133000E24FE600D14600E2404700DC28D22C2A5
:102143008F2275B2FE2275B2FD22E49000B4F090A6
:1021530000AFF0A3F0A3740BF0A374B8F0E4A3F002
:102163009000B5F0A3F0227E007401A80708800553
:10217300C333CE33CED8F9FFADC9EF5D7F00600224
:102183007F0122E4FF12216AEF6013E4FF1222BDF4
:102193009000BCE004F070069000BBE004F02290D5
:1021A300F002E4F0539AFB90F00AE04404F0E49068
:1021B30000C7F0A3F0A3F0A3F022EF75F00A84E5C3
:1021C300F025E02415F582E43424F583E493FE74CA
:1021D3000193FF2212005650149000CAE004F0C38A
:1021E300940A748094804005E4F0121C9D22E490CC
:1021F30000BBF0A3F09000B7F0A3F09000B9F0A3F8
:10220300F09000BDF0A3F0229000B3E075F00A84D3
:10221300AFF01222DA9000B3E075F00A84FF0222D5
:10222300E8C3EF9464EE94005004E4FEFF22EF242D
:102233009CFFEE34FFFE221200067F02121EE47F93
:1022430030121EE47F52121EE402000EE49000CD11
:10225300F09000CEE0FFA3E09000CBCFF0A3EF22FD
:102263007B017A0079841211117B017A007984024F
:102273001FA97C277D101209199000ADECF0A3ED86
:10228300F00222877B017A0079841211117B017A93
:10229300007984021FA9EF1FAC0670011E4C600772
:1022A3003000FDC20080EF229000D0E06402700491
:1022B300FF022328E4FF12231C22A80774010880CD
:1022C30002C333D8FCF4F5C922A8077401088002BD
:1022D300C333D8FC42CF22EF75F00A849000ABE5FC
:1022E300F0F0022263EF75F00A849000ACE5F0F0A1
:1022F300022263C3EF9DEE9C50050FBF00010E2227
:10230300D3EF9DEE9C4005EF1F70011E22AEC8EE79
:1023130054E4FEEF4D4EF5C8229000D0E064026015
:1023230003122036229000D0E064016003122013D0
:102333002290F001E4F0439A02C28122E49000B4B7
:10234300F0121E6C02220BC20212224FF0E4FF02B3
:1023530020B7E5C85403700343C80122AEC8EE5446
:102363007F4FF5C8229000A81215A8022263EF60E0
:1023730003D28322C28322EFC39405748094802204
:1023830012001612229902001E9000B4E0D37001CD
:10239300C3221221F1FFFE02004690F127E04FF025
:1023A3002290F126E04FF02290F121E04FF02290AD
:1023B30000D07402F02290F120EFF0221215D00227
:1023C3002263007F3CDFFE22121D1C021CDE000084
:1023D3000000000000F800001FF8000000000000EB
:1023E30000010000000200000004000020000000C3
:1023F3004000000080000001000000020000000413
:102403000000000800000010000000200000004051
:102413000000003F0006015B014F0166016D017D75
:062423000007017F016FBC
:00000001FF
