:100000000213D302002A7F04021E790200317F0608
:10001000021E79020032D2A3D201220219CAC2A35F
:10002000C20122020039121E152232021CEDD2AD8D
:1000300022323202003AD281223232020041C2819F
:10004000223232020042021F18323202004932329A
:1000500032323202004A900020E024FF9203E4F0A2
:0E006000A2032202004E323232323202004F30
:0300730002005038
:03007B000200512F
:1000830002005290F023E4F043A208C2A3C201226B
:0300930002006602
:03009B00020067F9
:0300A300020068F0
:0300AB00020069E7
:1000B30002006A90009C12159790009BEFF0640178
:1000C3006003020161ED30E00CA312156312156B9E
:1000D30044801208E5ED30E50B12156012156B44F0
:1000E300401208E5ED30E60B12156012156B442043
:1000F3001208E5ED30E40B12156012156B44101273
:1001030008E5ED30E70B12156012156B4408120871
:10011300E5EC30E00B12156012156B44041208E590
:10012300EC30E10B12156012156B44021208E5ED79
:1001330030E30B12156012156B44011208E5ED3024
:10014300E10D121560240512156D44801208E5EDCA
:1001530020E203020775121560240502067390005E
:100163009BE064026003020215ED30E50EA3121555
:1001730063240512156D44401208E5ED30E40D12B9
:100183001560240512156D44201208E5ED30E00DCD
:10019300121560240512156D44081208E5ED30E6CA
:1001A3000D121560240512156D44041208E5EC3098
:1001B300E10D121560240512156D44021208E5EDD8
:1001C30030E30D121560240512156D44011208E584
:1001D300ED30E10D121560240612156D44801208EE
:1001E300E5ED30E70D121560240612156D4440123B
:1001F30008E5EC30E00D121560240612156D44205D
:100203001208E5ED20E203020775121560240602C9
:10021300067390009BE0640360030202C9ED30E0C3
:100223000EA3121563240612156D44081208E5ED9A
:1002330030E50D121560240612156D44041208E50D
:10024300ED30E60D121560240612156D44021208F6
:10025300E5ED30E40D121560240612156D4401120C
:1002630008E5ED30E70D121560240912156D448081
:100273001208E5EC30E00D121560240912156D44E7
:10028300401208E5EC30E10D121560240912156DDA
:1002930044201208E5ED30E30D1215602409121510
:1002A3006D44101208E5ED30E10D121560240812BB
:1002B300156D44081208E5ED20E2030207751215D7
:1002C3006024080204ED90009BE0640460030203D1
:1002D3007DED30E00EA3121563240812156D4480E2
:1002E3001208E5ED30E60D121560240812156D4471
:1002F300401208E5EC30E10D121560240812156D6B
:1003030044201208E5ED30E30D12156024081215A0
:100313006D44101208E5ED30E50D12156024081246
:10032300156D44041208E5ED30E40D121560240840
:1003330012156D44021208E5ED30E10D121560242B
:100343000712156D44081208E5ED30E70D1215602C
:10035300240712156D44041208E5EC30E00D121564
:1003630060240712156D44021208E5ED20E2030232
:10037300077512156024070204ED90009BE06405E5
:100383007076ED30E00EA3121563240A12156D4446
:10039300801208E5ED30E10D121560240A12156D87
:1003A30044401208E5ED30E20D121560240A1215DF
:1003B3006D44201208E5ED30E30D121560240A1296
:1003C300156D44101208E5ED30E50D121560240A91
:1003D30012156D44041208E5ED30E60D1215602484
:1003E3000A12156D44021208E5ED20E403020775B5
:1003F300121560240A0204ED90009BE06406706FFE
:10040300ED30E50DA3121563F912086C4440120890
:10041300E5ED30E60C121560F912086C4420120861
:10042300E5ED30E40C121560F912086C4410120863
:10043300E5ED30E00C121560F912086C440812085F
:10044300E5ED30E10C121560F912086C4404120852
:10045300E5ED30E20C121560F912086C4402120843
:10046300E5ED20E303020775121560F902057690A6
:10047300009BE06407707AED30E30EA3121563244A
:100483000112156D44801208E5ED30E20D1215607E
:10049300240112156D44401208E5ED30E10D1215EB
:1004A30060240112156D44201208E5ED30E00D12B1
:1004B3001560240112156D44101208E5ED30E40DAA
:1004C300121560240112156D44041208E5ED30E69F
:1004D3000D121560240112156D44021208E5ED207A
:1004E300E5030207751215602401F9E43AFA0205DF
:1004F3007690009BE06408600302057EED30E30E16
:10050300A3121563240212156D44801208E5ED3021
:10051300E20D121560240212156D44401208E5ED38
:1005230030E10D121560240212156D44201208E506
:10053300ED30E00D121560240212156D44101208FF
:10054300E5ED30E40D121560240212156D4404121A
:1005530008E5ED30E60D121560240212156D440214
:100563001208E5ED20E5030207751215602402F970
:10057300E43AFA12086C440102077290009BE064AB
:1005830009600302067BED30E50EA3121563240D0B
:1005930012156D44081208E5ED30E60D12156024BE
:1005A3000D12156D44041208E5EC30E50D121560CB
:1005B300240D12156D44021208E5ED30E40D1215F9
:1005C30060240D12156D44011208E5ED30E00D12A3
:1005D3001560240E12156D44801208E5EC30E20D0F
:1005E300121560240E12156D44401208E5ED30E734
:1005F3000D121560240E12156D44201208E5EC301F
:10060300E10D121560240E12156D44101208E5ED6C
:1006130030E10D121560240E12156D44081208E521
:10062300EC30E30D121560240E12156D440412080C
:10063300E5EC30E00D121560240E12156D44021224
:1006430008E5EC30E40D121560240E12156D44011B
:100653001208E5ED30E20D121560240F12156D44FA
:10066300201208E5ED20E303020775121560240F3D
:1006730012156D441002077290009BE0640A600338
:10068300020775ED30E50EA3121563240B12156DE9
:1006930044081208E5ED30E60D121560240B12151F
:1006A3006D44041208E5EC30E50D121560240B12BD
:1006B300156D44021208E5ED30E40D121560240BAC
:1006C30012156D44011208E5EC30E40D1215602497
:1006D3000C12156D44801208E5EC30E20D12156022
:1006E300240C12156D44401208E5EC30E30D12158D
:1006F30060240C12156D44201208E5EC30E10D1254
:100703001560240C12156D44101208E5ED30E00D50
:10071300121560240C12156D44081208E5ED30E73C
:100723000D121560240C12156D44041208E5EC300B
:10073300E00D121560240C12156D44021208E5ED4C
:1007430030E10D121560240D12156D44401208E5B9
:10075300ED30E20D121560240D12156D44201208C0
:10076300E5ED30E30D121560240D12156D441012E2
:1007730008E522E709F608DFFA8046E709F208DF11
:10078300FA803E88828C83E709F0A3DFFA8032E3A4
:1007930009F608DFFA8078E309F208DFFA80708847
:1007A300828C83E309F0A3DFFA806489828A83E081
:1007B300A3F608DFFA805889828A83E0A3F208DF70
:1007C300FA804C80D280FA80C680D4806980F2801F
:1007D30033801080A680EA809A80A880DA80E28045
:1007E300CA803389828A83ECFAE493A3C8C582C89A
:1007F300CCC583CCF0A3C8C582C8CCC583CCDFE904
:10080300DEE7800D89828A83E493A3F608DFF9EC9F
:10081300FAA9F0EDFB2289828A83ECFAE0A3C8C52A
:1008230082C8CCC583CCF0A3C8C582C8CCC583CC51
:10083300DFEADEE880DB89828A83E493A3F208DFC0
:10084300F980CC88F0EF60010E4E60C388F0ED2490
:1008530002B4040050B9F582EB2402B4040050AF93
:1008630023234582239007C673BB010689828A83AB
:10087300E0225002E722BBFE02E32289828A83E45C
:100883009322BB010CE58229F582E5833AF583E0E7
:10089300225006E92582F8E622BBFE06E92582F806
:1008A300E222E58229F582E5833AF583E49322BBCC
:1008B300010FF8E58229F582E5833AF583E028F014
:1008C300225009C58229F8E58226F622BBFE09C516
:1008D3008229F8E22582F222F8EA2583F583E99357
:1008E3002822BB010689828A83F0225002F722BBA9
:1008F300FE01F322F8BB010DE58229F582E5833A77
:10090300F583E8F0225006E92582C8F622BBFE05EE
:10091300E92582C8F222BC000BBE0029EF8DF084CA
:10092300FFADF022E4CCF875F008EF2FFFEE33FEB5
:10093300EC33FCEE9DEC984005FCEE9DFE0FD5F0EC
:10094300E9E4CEFD22EDF8F5F0EE8420D21CFEADF5
:10095300F075F008EF2FFFED33FD4007985006D5F3
:10096300F0F222C398FD0FD5F0EA22C5F0F8A3E018
:1009730028F0C5F0F8E582158270021583E038F09F
:1009830022BB0110E58229F582E5833AF583E0F580
:10099300F0A3E0225009E92582F886F008E622BB9D
:1009A300FE0AE92582F8E2F5F008E222E5832AF55A
:1009B30083E993F5F0A3E99322BB010DC58229C511
:1009C30082C5833AC58302096E5011C58229F8088E
:1009D300E5F026F618F5F0E58236F622BBFE11C5E2
:1009E3008229F808E225F0F5F0F218E23582F222C6
:1009F300F8E58229F582E5832AF58374019325F0CE
:100A0300F5F0E4933822F8BB0111E58229F582E57C
:100A1300833AF583E8F0E5F0A3F0225009E9258253
:100A2300C8F608A6F022BBFE09E92582C8F2E5F064
:100A330008F22275F008758200EF2FFFEE33FECD2A
:100A430033CDCC33CCC58233C5829BED9AEC99E58B
:100A53008298400CF582EE9BFEED9AFDEC99FC0F1B
:100A6300D5F0D6E4CEFBE4CDFAE4CCF9A88222B8E3
:100A730000C1B90059BA002DEC8BF084CFCECDFC68
:100A8300E5F0CBF97818EF2FFFEE33FEED33FDECF5
:100A930033FCEB33FB10D703994004EB99FB0FD8DE
:100AA300E5E4F9FA227818EF2FFFEE33FEED33FD7C
:100AB300EC33FCC933C910D7059BE99A4007EC9B7B
:100AC300FCE99AF90FD8E0E4C9FAE4CCFB2275F00B
:100AD30010EF2FFFEE33FEED33FDCC33CCC833C81C
:100AE30010D7079BEC9AE899400AED9BFDEC9AFC22
:100AF300E899F80FD5F0DAE4CDFBE4CCFAE4C8F9D1
:100B030022CFF4CFCEF4CECDF4CDCCF4CC22E493EB
:100B1300FC740193FD740293FE740393FF22E49328
:100B2300F8740193F9740293FA740393FB22ECF0C3
:100B3300A3EDF0A3EEF0A3EFF022A8828583F0D01B
:100B430083D082120B54120B54120B54120B54E425
:100B530073E493A3C583C5F0C583C8C582C8F0A356
:100B6300C583C5F0C583C8C582C822D083D082F8A7
:100B7300E4937012740193700DA3A393F87401931B
:100B8300F5828883E4737402936860EFA3A3A38060
:100B9300DFEC8EF0A4CCC5F0CCCDF8EFA4CEC5F03D
:100BA3002DFDE43CFCE8A42EC8C5F03DFDE43CFC6F
:100BB300EFA4FFE5F028FEE43DFDE43CFC229000B9
:100BC3009B1215971215815404FEE4FCEE600C9001
:100BD300009B121563F97480120E111215815408CB
:100BE300FEE4FCEE600C90009B121563F974401256
:100BF3000E111215815410FEE4FCEE600C90009B64
:100C0300121563F97420120E3912158C5440FDE449
:100C1300FCED600C90009B121563F97410120E39F1
:100C23001215815402FEE4FCEE600C90009B121539
:100C330063F97480120DF31215815480FEE4FCEE07
:100C4300600C90009B121563F97440120DF312159A
:100C53008C5420FDE4FCED600C90009B121563F9AD
:100C63007420120E0712158C5410FDE4FCED600C79
:100C730090009B121563F97410120E071215A054FD
:100C830001FFE4FEFCEF600C90009B121563F97406
:100C930008120E2F1215A05402FFE4FEFCEF600CA5
:100CA30090009B121563F97404120E2F1215A054B1
:100CB30004FFE4FEFCEF601290009B121563F990B1
:100CC30000A27402F07D07120FE71215A05440FF33
:100CD300E4FEFCEF600C90009B121563F974801224
:100CE3000E1B1215A05420FFE4FEFCEF600C9000D5
:100CF3009B121563F97440120E1B1215A05410FFBA
:100D0300E4FEFCEF600C90009B121563F974201253
:100D13000E431215A05408FFE4FEFCEF600C900094
:100D23009B121563F97410120E431215A05480FF21
:100D3300E4FEFCEF601290009B121563F99000A291
:100D43007480F07D0B120FE71215815420FEE4FC32
:100D5300EE601290009B121563F99000A27480F06C
:100D63007D0D120FE71215815401FEE4FCEE600CB9
:100D730090009B121563F97480120DFD12158154B6
:100D830040FEE4FCEE600C90009B121563F9744086
:100D9300120DFD12158C5408FDE4FCED600C90005F
:100DA3009B121563F97408120E2512158C5404FD59
:100DB300E4FCED600C90009B121563F97404120EB1
:100DC3002512158C5402FDE4FCED600C90009B127F
:100DD3001563F97402120E4D12158C5401FDE4FCD7
:100DE300ED600C90009B121563F97401120E4D22F5
:100DF3009000A2F07D07120FE7229000A2F07D1170
:100E0300120FE7229000A2F07D07120FE722900055
:100E1300A2F07D1B120FE7229000A2F07D09120FB2
:100E2300E7229000A2F07D11120FE7229000A2F0BA
:100E33007D07120FE7229000A2F07D1B120FE7221D
:100E43009000A2F07D09120FE7229000A2F07D111D
:100E5300120FE72290F032E4F043A30490F036F04F
:100E630043A34090F005F0439A2090F003F0439A97
:100E7300081221F67F10121F897F0112232D1222DF
:100E8300F0120036120086121F3F12178F12236EC4
:100E930012215E122387122109122092E4FFFE120F
:100EA3002231122054121B575008E49000C2F01252
:100EB3001EA2122193120026AC06AD079000BDE0DE
:100EC300FEA3E0FF9000D0E06402C37001D392035D
:100ED300121971122348402E9000BFE0FEA3E0FFD9
:100EE3009000BDE06E7003A3E06F601A9000BDE058
:100EF300FFA3E09000BFCFF0A3EFF09000BFE0FEB0
:100F0300A3E0FF122231121BEB787C7C007D017E73
:100F1300007F0412084690007DE0FF608590007C0E
:100F2300E0701AEF6401700B7F32FE12233F12222E
:100F33006780D390007DE0640370CB806390007C76
:100F4300E064036005122348502378807C007D0110
:100F53007B017A00797C7E007F041208461212FC22
:100F630012234840A190007CE0640360999000D074
:100F7300E06401609190007CE024FE602D047086A3
:100F830090007DE024FD601824026003020F091223
:100F93000FDBD3940074809480402DE014F08028FC
:100FA3007FE87E0312233F020F0990007DE024FDBA
:100FB300601C24026003020F09120FDBC394027446
:100FC3008094805003E004F0121EA2020F097FE810
:100FD3007E0312233F020F097F327E0012233F90CC
:100FE30000C2E02290009E121597ED120B6E1025A1
:100FF30001102F03103E05104D07105C09106B0BF9
:10100300107A0D10880F10961110A41310B215103A
:10101300C01710CE1910DC1B10EA1D10F81F0000BA
:10102300111090009E121563F902110490009E1294
:1010330015632401F9E43AFA02110490009E121593
:10104300632402F9E43AFA02110490009E12156334
:101053002403F9E43AFA02110490009E1215632462
:101063000BF9E43AFA02110490009E121563240C62
:10107300F9E43AFA02110490009E121563240DF963
:10108300E43AFA807C90009E121563240EF9E43A48
:10109300FA806E90009E121563240FF9E43AFA80E9
:1010A3006090009E1215632404F9E43AFA8052908A
:1010B300009E1215632405F9E43AFA804490009ED9
:1010C3001215632406F9E43AFA803690009E12154D
:1010D30063240AF9E43AFA802890009E12156324E7
:1010E30007F9E43AFA801A90009E1215632408F96E
:1010F300E43AFA800C90009E1215632409F9E43A4D
:10110300FA12086CFF9000A2E04F1208E52290004B
:10111300941215979000ADE0FAA3E0FB7C037DE801
:10112300FFAE02120919900097EFF07C007D64AFC7
:1011330003AE021209197C007D0A120919A3EDF00E
:101143009000ADA3E0FF1215BA7C007D0A120919C5
:10115300900099EDF0AF031215BAA3EDF09000944F
:10116300121563F912172390009712157412156361
:10117300F97F011200B6900098121574121563F9E5
:101183007F021200B6900099121574121563F97F4D
:10119300031200B690009A121574121563F97F04B6
:1011A3001200B69000A7121574121563F97F051289
:1011B30000B69000A8121574121563F97F06120089
:1011C300B69000A9121574121563F97F071200B6C1
:1011D3009000AA121574121563F97F081200B690D5
:1011E30000AB121574121563F97F091200B6900053
:1011F300AC121574121563F97F0A1200B6900094AD
:10120300121563F9020BC1900081EBF0A3EAF0A37E
:10121300E9F012086CFF121D971217FC121843FE17
:101223006F600E900003EF1208F7900001740180C5
:101233005E900001120885C3940374809480500863
:1012430090000174010208B2900002120885FC6E3E
:1012530060401217FC121843601E12086CFFE4FB77
:10126300FA7D011217F990000412184C900006E45D
:101273001208F7121849800EEC600B1217FC1218B3
:10128300127D02121A201217FC1218439000020258
:1012930008F71217FC121843605E900004E475F01F
:1012A3000A1209BC90000612088570221217FC90DE
:1012B3000004120984C394DCE5F09405401012186D
:1012C300127D031217F990000674011208F7121722
:1012D300FC900007E475F00A1209BC90000712099C
:1012E30084C394C8E5F09400400E1217FC12184909
:1012F3001218127D04121A2022900080E0640370F9
:1013030030A3E06403702A9000B4E0700404F0801A
:101313000DE49000B4F09000AFA3E0121E017FE84B
:101323007E0312233F9000B4E060030213CF022137
:10133300C79000B4E0FF70030213D2900080E06412
:1013430003701FA3E064017019EF64019000B4708F
:10135300057402F080037401F07F327E0012233F94
:10136300806A900081E0FF64016005EF6404705FB0
:10137300900080E064017024121E1E700F121DF88D
:101383007D637C001222B29000AF8009121E1512F9
:1013930021E09000B1EEF0A3EFF08029900080E00F
:1013A3006402702B121E1E700E121DF8E4FDFC1257
:1013B30022BF9000AF8009121E151220B19000B118
:1013C300EEF0A3EFF07F147E0012233F121DC8221C
:1013D30078FFE4F6D8FD9000007F007E04E4F0A3DC
:1013E300DFFCDEFA758120021428020E57E493A372
:1013F300F8E493A34003F68001F208DFF48029E4C4
:1014030093A3F85407240CC8C333C4540F4420C80F
:10141300834004F456800146F6DFE4800B010204A6
:1014230008102040809014E8E47E019360BCA3FF81
:10143300543F30E509541FFEE493A360010ECF54DB
:10144300C025E060A840B8E493A3FAE493A3F8E4CA
:1014530093A3C8C582C8CAC583CAF0A3C8C582C836
:10146300CAC583CADFE9DEE780BEEF701DAEC8EEF2
:1014730054BFFEED5401C4333354C04EF5C8AECE51
:10148300EE54FCFEED44014EF5CEEF6401701953AA
:10149300C8DFED700343C820AECEEE54F3FEED4437
:1014A3000125E025E04EF5CEEF6402701853C8DF46
:1014B300ED700343C820AECEEE54CFFEED4401C41D
:1014C30054F04EF5CEEF6403701A53C8DFED70038A
:1014D30043C820AECEEE543FFEED4401C433335433
:1014E300C04EF5CE224100C2004200BF00004100C1
:1014F300C1004200C300004200C500004200AD002D
:10150300004600A70000000000004400A300000004
:10151300004A0068000000000000000000004A00CC
:1015230072BF06DB5F766DED07EF6F4A0049FA0A7B
:10153300D69E2EBDFC1AFEBE4A0053AFA0CBE9E4F3
:101543006D6FA8EFED4B005D102001408001040298
:1015530031CEFF4100D0024200BD00000090009C4C
:10156300E0FBA3E0FAA3E0222404F9E43AFA020838
:101573006CE0FF122179AC06AD0790009422900035
:10158300A3A3A3E0FEE4FFEE229000A3A3E0FDE407
:10159300FFFEED22EBF0A3EAF0A3E9F0229000A313
:1015A300A3A3A3E022EF75F00A84E5F0F022EF7520
:1015B300F00A84E5F0F0227C007D0AAE02020919EC
:1015C300E0F8A3E0F9A3E0FAA3E0FB22FC9000A378
:1015D300020B319000971215979000041208857F33
:1015E30013121637121563F99000051208857F153B
:1015F300121637121563F99000061208857F171229
:10160300163F121563F99000091208857F1F121601
:101613003F121563F9900008120885FD7F1D121D06
:1016230028900097121563F9900007120885FD7F33
:101633001B021D28FD121D2890009722FD121D2854
:1016430090009722EF14601F14602B14603714600E
:101653004314604F24057059EC90F131F090F13050
:10166300121ED34401F022EC90F133F090F13212C8
:101673001ED34402F022EC90F135F090F134121EA7
:10168300D34404F022EC90F137F090F136121ED3DC
:101693004408F022EC90F139F090F138121ED34453
:1016A30010F022EC90F13BF090F13A121ED344205B
:1016B300F022EF14601F14602B146037146043147E
:1016C300604F24057059EC90F141F090F140121EE7
:1016D300D34401F022EC90F143F090F142121ED377
:1016E3004402F022EC90F145F090F144121ED344F1
:1016F30004F022EC90F147F090F146121ED3440817
:10170300F022EC90F149F090F148121ED34410F00E
:1017130022EC90F14BF090F14A121ED34420F022B8
:10172300E41208E59000011208F7900002E41208A1
:10173300F7900003E41208F7900004E41208F7900E
:101743000005E41208F7900006E41208F79000077A
:10175300E41208F7900008E41208F7900009E41275
:1017630008F790000AE41208F790000BE41208F758
:1017730090000CE41208F790000DE41208F79000B3
:101783000EE41208F790000FE40208F7E4FEEE12ED
:10179300182D5054EE121835EEF0121835E0FF12E2
:1017A3001A73EE75F009A42424F582E434001218A8
:1017B300082425F582E434001218082426F582E46F
:1017C3003400121808121852E4F0A312180B24293B
:1017D300F582E43400121808242AF582E43400F573
:1017E30083E4F0A3F00E80A6E4900048F09000227A
:1017F300F0900021F022121A20900081E0FBA3E078
:10180300FAA3E0F922F583E4F0EE75F009A42212BD
:10181300086CFF900004120984FBAAF022E004F094
:10182300E0C394087480948022EFC394047480947A
:10183300802275F009A42423F582E43400F5832281
:10184300900003020885900007E4F5F0020A0924DA
:1018530027F582E43400F5832290009712159790C0
:10186300000B1208857F091218B2121563F9900054
:101873000C1208857F0B1218B2121563F990000D34
:10188300120885FD7F0D121D28900097121563F92C
:1018930090000E120885FD7F0F121D2890009712ED
:1018A3001563F990000F120885FD7F11021D28FDB5
:1018B300121D2890009722EF14601C1460251460F9
:1018C3002E1460371460402405704790F12374018F
:1018D300F090F12AEDF02290F1237401F090F12BB6
:1018E300EDF02290F1247401F090F12CEDF02290B0
:1018F300F1247401F090F12DEDF02290F1257401A3
:10190300F090F12EEDF02290F1257401F090F12F7B
:10191300EDF02290009712159790000A1208857F28
:1019230019121969121563F912086C7F01121969EA
:10193300121563F9900001120885FD7F03121D281B
:10194300900097121563F9900002120885FD7F0538
:10195300121D28900097121563F990000312088551
:10196300FD7F07021D28FD121D28900097223003DA
:101973000BED4C6007D3EF9DEE9C500630024702FF
:101983002306200207D20212220B80349000CEE0FD
:10199300FEA3E0FF9000CBE0FCA3E0FDC3EF9DFDC1
:1019A300EE9CFCC3ED9464EC9400401A9000CBEEE3
:1019B300F0A3EFF0A3E07F0160027F009000CDEF82
:1019C300F07F0112207322C0E0C0F0C083C082C048
:1019D300D075D000C000C001C002C003C004C00560
:1019E300C006C0077F011220EC758DF8758B30D2CD
:1019F300009000CFE004F070069000CEE004F012F7
:101A03001BA1D007D006D005D004D003D002D0014B
:101A1300D000D0D0D082D083D0F0D0E0329000215B
:101A2300121823504AA3E0FE25E025E02400F582A6
:101A3300E43400F583EFF0EE25E025E02401F582A0
:101A4300E43400F583EDF0AF03900022E025E025B8
:101A5300E02402F582E43400F583EAF0A3EFF0908A
:101A630000221218204002E4F0900021E004F0224A
:101A7300EF14601A1460271460342403703F90F04D
:101A830004E4F0539AEF90F00AE04410F02290F04F
:101A930031E4F053A3FD90F03AE04402F02290F0D9
:101AA30017E4F053A17F90F01AE04480F02290F005
:101AB30013E4F053A1F790F01AE04408F022EF1476
:101AC300601924FE602B1460312404703CAE89EE4F
:101AD30054F8FEED25E025E04B8012AE89EE548FDD
:101AE300FEEBC454F0FFEDC4333354C04F4EF589BD
:101AF30022AED2EE54FC4BF5D222AED2EE54CFFE40
:101B0300AF03EFC454F04EF5D222EF14601924FE54
:101B1300602314602D2404703AAE8EEE54F7FEED6C
:101B230033333354F8800AAE8EEE54EFFEEDC454D3
:101B3300F04EF58E22AED2EE54FBFEED25E025E00D
:101B4300800EAED2EE54BFFEAF05EFC4333354C0A4
:101B53004EF5D2229000B4E070069000B3E070021C
:101B6300C3229000CEE0FEA3E0FF9000B5E0FCA30B
:101B7300E0FDC3EF9DFDEE9CFCC3ED94E8EC940304
:101B83005002C3229000B5EEF0A3EFF09000B3E053
:101B930014F01221C79000B3E0C37001D322900068
:101BA300B7E475F00112096EFEC3E5F094F4EE9408
:101BB300014034E49000B7F0A3F09000BBE0FFA332
:101BC300E09000B9CFF0A3EFF0E49000BBF0A3F0F6
:101BD3009000B9E0FEA3E0FF7C007D3C120B9490E3
:101BE30000BDEEF0A3EFF022E4900080F0A3F0A399
:101BF300F0A3F0900021E0602F900048E075F0041E
:101C0300A42400F9740035F0FA7B0178807C007D10
:101C1300017E007F041208469000481218204002FB
:101C2300E4F0900021E014F07B017A007980227FB8
:101C3300002082027F019000C9E0FE6F6009EFF08F
:101C43009000C77401F0229000C7E0C3940374802E
:101C530094805004E004F0229000C8E06E6010A36A
:101C6300E09000C8F07F0160030222D81222E42230
:101C730090F022E4F053A2FB90F02AE04404F090A9
:101C8300F0C87422F0E4FD7F011222CCE4FF12239A
:101C93001BE4FFFE122014E4F5C9FDFF12146DE4EA
:101CA300FF12228812002E1223111221AD2290F06E
:101CB300267417F043A2407F041223757D027F052B
:101CC3001218BA7D287C007F05121647E4FDFC7FBD
:101CD300051216B57F2012235990F129E04420F014
:101CE3007F201223607F20022367C0E0C0F0C083FF
:101CF300C082C0D075D000C000C001C002C003C004
:101D030004C005C006C007122142D007D006D00583
:101D1300D004D003D002D001D000D0D0D082D08361
:101D2300D0F0D0E032AB07AA05E4FFEB25E025E0D5
:101D3300FBC28512233650030F80F87D037FA01268
:101D43001E25AF037D06121E25AF027D08121E2538
:101D5300E4FF12233650030F80F8D285229000C18E
:101D6300E025E025E02499F582E43423F583120B82
:101D7300119000C2E025E025E0248DF582E43423B0
:101D8300F583120B21EB4FFFEA4EFEE94DFDE84CC4
:101D9300FC02237BEF14601214601714601C2403ED
:101DA30070207F002084027F01227F0020B1027F08
:101DB30001227F002097027F01227F002093027F70
:101DC30001227F0022121E1E701C121DF87C007D52
:101DD3000A120919AF05122296121DF87C007D0A1A
:101DE3001209190222A49000B4E064027006121EC4
:101DF30015122231229000AFE0FEA3E0FF229000F3
:101E0300B3F09000CEE0FFA3E09000B5CFF0A3EFD6
:101E1300F0229000B1E0FEA3E0FF229000B4E06462
:101E23000122AE07E4FCECC39D501EC2B61223810F
:101E3300EE30E704D2B28002C2B2122381D2B612CC
:101E43002381EE25E0FE0C80DD022381E4900080F7
:101E5300F0900080E0FF12182D501AEF75F009A4DE
:101E63002423F9740035F0FA7B0112120A900080E2
:101E7300E004F080DC22AB07E4FFC2851223365076
:101E8300030F80F87D047F80121E25AF037D0812A7
:101E93001E25E4FF12233650030F80F8D2852290CB
:101EA30000C2E07003FF800A9000C2E06401700585
:101EB3007F28FE80047F507E001200469000C2E01F
:101EC300FF122324021D60E0FEEFF4FFEE5FF02219
:101ED300EDF090F129E022EBF090F129E0227E0071
:101EE3007401A8070822FFE0FDEF5D7F0022EF14D5
:101EF300601024FE6011146013240470178D8C8B02
:101F03008A228D8D8B8B228DDB8BDA22AF058FE3BB
:101F1300AF038FE222EFD394647480948040027FF6
:101F2300647E007C007D28120B94E47B64FAF9F84C
:101F3300120A72AD07AC067F050216B57B01E4FDFC
:101F43007F01121AC1E4FD7F01121B0D7B307DF866
:101F53007F01121EF17F011220CF7F01122035D2A3
:101F6300AF22900094121597900094121563F91202
:101F730015D6900094121563F91219169000941255
:101F83001563F902185C900080EFF0E4A3F0F99078
:101F93000080E0FFE9C39F500FA3E0FFE4FD121DA3
:101FA30028E02402F00980E722900080EFF0E4A308
:101FB300F0F9900080E0FFE9C39F500FA3E0FF7D9D
:101FC300FF121D28E02402F00980E7221200067F99
:101FD30010121F89E4FF12232D12003E12001E125D
:101FE30023511222FB1223069000D07401F0221217
:101FF300000E7F10121FAC7F0112232D1200361228
:1020030023511222FB1223069000D07402F0022205
:102013001FAD07AC06AB058BCCECFFF5CDE5C85483
:102023001864106008E5C85418641870048BCA8FCC
:10203300CB22EF14600F24FE600F14601024047091
:102043000F438810224388402243D2082243D28080
:102053002230001BC200900047E004F0C3940A74CE
:10206300809480400AE4F090002004F0121E4F2276
:10207300EF7007C295C2A4C2A522D2959000CDE00D
:10208300FFD36001C392A4EFC36001D392A5229052
:10209300F015E4F043A12090F024F043A210A3F044
:1020A30043A220C20212220CF0E4FF022073AD0708
:1020B300AC06ED2464FBE43CFAD3EB940FEA9427DB
:1020C30040057E277F0F22AF03AE0222EF14600E7E
:1020D30024FE600D14600E2404700DD2A922D2AB2D
:1020E3002243AA012243AA0222EF14600E24FE60B7
:1020F3000D14600E2404700DC28D22C28F2275B29E
:10210300FE2275B2FD22E49000B4F09000AFF0A37C
:10211300F0A3740BF0A374B8F0E4A3F09000B5F04F
:10212300A3F0227E007401A807088005C333CE33D1
:10213300CED8F9FFADC9EF5D7F0060027F0122E4D5
:10214300FF122126EF6013E4FF1222799000BCE016
:1021530004F070069000BBE004F02290F002E4F07B
:10216300539AFB90F00AE04404F0E49000C7F0A314
:10217300F0A3F0A3F022EF75F00A84E5F025E02444
:10218300D1F582E43423F583E493FE740193FF22B3
:1021930012005650149000CAE004F0C3940A7480ED
:1021A30094804005E4F0121C3222E49000BBF0A3BB
:1021B300F09000B7F0A3F09000B9F0A3F09000BD49
:1021C300F0A3F0229000B3E075F00A84AFF012227E
:1021D300969000B3E075F00A84FF0222A4C3EF9443
:1021E30064EE94005004E4FEFF22EF249CFFEE34DF
:1021F300FFFE221200067F02121E797F30121E7923
:102203007F52121E7902000EE49000CDF09000CEB2
:10221300E0FFA3E09000CBCFF0A3EF227B017A0095
:1022230079841211117B017A007984021F657C275E
:102233007D101209199000ADECF0A3EDF0022243DA
:102243007B017A0079841211117B017A007984026F
:102253001F65EF1FAC0670011E4C60073000FDC206
:102263000080EF229000D0E064027004FF0222E4B9
:10227300E4FF1222D822A8077401088002C333D8CE
:10228300FCF4F5C922A8077401088002C333D8FC03
:1022930042CF22EF75F00A849000ABE5F0F0022202
:1022A3001FEF75F00A849000ACE5F0F002221FC323
:1022B300EF9DEE9C50050FBF00010E22D3EF9DEE64
:1022C3009C4005EF1F70011E22AEC8EE54E4FEEFE2
:1022D3004D4EF5C8229000D0E064026003121FF255
:1022E300229000D0E064016003121FCF2290F0011E
:1022F300E4F0439A02C28122E49000B4F0121E017A
:102303000221C7C20212220BF0E4FF022073E5C8C8
:102313005403700343C80122AEC8EE547F4FF5C87F
:10232300229000A81215A802221FEF6003D2832275
:10233300C28322EFC3940574809480221200161284
:10234300225502001E9000B4E0D37001C322122173
:10235300ADFFFE02004690F127E04FF02290F126F8
:10236300E04FF02290F121E04FF0229000D0740270
:10237300F02290F120EFF0221215D002221F007FED
:102383003CDFFE22121CB1021C730000000000009F
:1023930000F800001FF8000000000000000100002A
:1023A30000020000000400002000000040000000C4
:1023B300800000010000000200000004000000088B
:1023C3000000001000000020000000400000003F5B
:1023D3000006015B014F0166016D017D0007017F6E
:0223E300016F88
:00000001FF
